:020000040800F2
:10000000000002204D390008491600084F1600086C
:10001000551600085B160008611600080000000075
:10002000000000000000000000000000671600084B
:1000300075160008000000008316000891160008DD
:100040009D3900089D3900089D3900089D39000838
:100050009D3900089D3900089D3900089D39000828
:100060009D3900089D3900089D3900089D39000818
:100070009D3900089D3900089D3900089D39000808
:100080009D3900089D3900089D3900089D390008F8
:100090009D3900089D3900089D3900089D390008E8
:1000A0009D3900089D3900089D3900089D390008D8
:1000B0009D3900089D3900089D3900089D390008C8
:1000C0009D3900089D3900089D3900089D390008B8
:1000D0009D3900089D3900089D160008B1160008DA
:1000E0009D3900089D3900089D3900089D39000898
:1000F0009D3900089D3900089D3900089D39000888
:100100009D3900089D3900089D3900089D39000877
:100110009D390008C51600089D3900089D39000862
:100120009D3900089D3900089D3900089D39000857
:100130009D3900089D3900089D3900089D39000847
:100140009D3900089D3900089D3900089D39000837
:100150009D3900089D3900089D3900089D39000827
:100160009D3900089D3900089D3900089D39000817
:100170009D3900089D3900089D39000800000000E5
:080180009D3900089D390008BB
:1001C000A2EB0300704700BF02780B78012A28BF1A
:1001D0009A42F5D16DE9044540EA0104CDE9026790
:1001E0006FF0000C4FEA447212B380EA010414F07D
:1001F000070F6AD100F0070420F0070004F00305A0
:1002000021F007014FEAC505F0E8042314F0040FBC
:10021000F1E804670CFA05F462EA040266EA0406EF
:100220000AD063EA0403624667EA0407664603E00D
:10023000F0E80423F1E8046782FA4CF582EA060448
:10024000A4FA8CF46CBB83FA4CF583EA0705A5FA93
:100250008CF595B950E9022351E9026782FA4CF511
:1002600082EA0604A4FA8CF483FA4CF583EA0705C3
:10027000A5FA8CF52543DBD09CB92DBAB5FA85F4E7
:1002800024F0070427FA04F1DDE9026723FA04F3F6
:1002900003F0FF0001F0FF01FDE80445A0EB0100C1
:1002A000704724BAB4FA84F424F0070426FA04F15F
:1002B000DDE9026722FA04F202F0FF0001F0FF011B
:1002C000FDE80445A0EB0100704714F0030F3CD19A
:1002D00010F0030428D150F8082B51F8083B82FA9B
:1002E0004CF582EA0305A5FA8CF55DB950F8042CAB
:1002F00051F8043C82FA4CF582EA0305A5FA8CF524
:10030000002DE8D02DBAB5FA85F424F0070423FABD
:1003100004F122FA04F202F0FF0001F0FF01FDE80F
:100320000445A0EB010070474FEAC40420F003002D
:1003300050F8082B21F0030151F8083B0CFA04F4A3
:1003400062EA040263EA0403C9E710F003041AD066
:10035000A1EB040120F00300E40750F8042B06D0C1
:100360000FD28B785FFAA2F4E41A06D12BB1CB78C6
:100370005FFAB2F4E41A00D11BB920465DF8104BC5
:10038000704701F1040150F8042BCC0721F0030160
:1003900051F8043B48D824D222F07F4482FA4CF52D
:1003A00094EA1325A5FA8CF50AD165B951F8043BF6
:1003B00084EA0204B4EB036F0ED150F8042BEBE790
:1003C0004FEA132355E035F07F454DD10878FDE81D
:1003D0000445C0F1000070474FEA126203F0FF03CA
:1003E00047E002EA1C4482FA4CF594EA1345A5FA68
:1003F0008CF50AD165B951F8043B84EA0204B4EBE8
:10040000034F0CD150F8042BEBE74FEA134330E0D5
:1004100015EA1C4528D10B884FEA124229E04FEA21
:10042000124203EA1C4324E002F0FF0482FA4CF576
:1004300094EA1365A5FA8CF50AD165B951F8043B25
:1004400084EA0204B4EB032F09D150F8042BEBE744
:100450004FEA13630DE015F0FF0F05D10B684FEA6B
:10046000122223F07F4304E04FF00000FDE8044532
:10047000704712BA1BBA82FA4CF482EA0304A4FA57
:100480008CF5B5FA85F402FA04F203FA04F34FEAA4
:100490001260FDE80445A0EB136070470000000007
:1004A00001F0FF01102A2BDB10F0070F08D010F825
:1004B000013B013A8B422DD010F0070F42B3F6D129
:1004C000F0B441EA012141EA014122F007047FF042
:1004D00000070023F0E80256083C85EA010586EA99
:1004E000010685FA47F5A3FA87F586FA47F6A5FAD5
:1004F00087F68EB9EED1F0BC01F0FF0102F00702E1
:1005000032B110F8013B013A83EA010313B1F8D18B
:100510000020704701387047002D06BF354603386C
:10052000073815F0010F07D1013015F4807F02BFA5
:10053000013015F4C03F0130F0BC0138704700BFF6
:10054000844641EA000313F003036DD1403A41D3DE
:1005500051F8043B40F8043B51F8043B40F8043B9D
:1005600051F8043B40F8043B51F8043B40F8043B8D
:1005700051F8043B40F8043B51F8043B40F8043B7D
:1005800051F8043B40F8043B51F8043B40F8043B6D
:1005900051F8043B40F8043B51F8043B40F8043B5D
:1005A00051F8043B40F8043B51F8043B40F8043B4D
:1005B00051F8043B40F8043B51F8043B40F8043B3D
:1005C00051F8043B40F8043B51F8043B40F8043B2D
:1005D000403ABDD2303211D351F8043B40F8043BCD
:1005E00051F8043B40F8043B51F8043B40F8043B0D
:1005F00051F8043B40F8043B103AEDD20C3205D3DD
:1006000051F8043B40F8043B043AF9D2043208D0D4
:10061000D2071CBF11F8013B00F8013B01D30B8846
:1006200003806046704700BF082A13D38B078DD024
:1006300010F003038AD0C3F10403D21ADB071CBFF6
:1006400011F8013B00F8013B80D331F8023B20F860
:10065000023B7BE7043AD9D3013A11F8013B00F899
:10066000013BF9D20B7803704B7843708B78837021
:10067000604670470000000000000000000000001D
:1006800090F800F06DE9024520F007016FF0000CD2
:1006900010F0070491F820F040F049804FF000047A
:1006A0006FF00700D1E9002391F840F000F1080055
:1006B00082FA4CF2A4FA8CF283FA4CF3A2FA8CF38D
:1006C0004BBBD1E9022382FA4CF200F10800A4FAF4
:1006D0008CF283FA4CF3A2FA8CF3E3B9D1E9042348
:1006E00082FA4CF200F10800A4FA8CF283FA4CF37F
:1006F000A2FA8CF37BB9D1E9062301F1200182FA39
:100700004CF200F10800A4FA8CF283FA4CF3A2FA3E
:100710008CF3002BC6D0002A04BF04301A4612BA4C
:10072000B2FA82F2FDE8024500EBD2007047D1E94F
:10073000002304F00305C4F100004FEAC50514F0DE
:10074000040F91F840F00CFA05F562EA05021CBFAF
:1007500063EA050362464FF00004A9E781F0004117
:1007600002E000BF83F0004330B54FEA41044FEA96
:10077000430594EA050F08BF90EA020F1FBF54EA31
:10078000000C55EA020C7FEA645C7FEA655C00F0CD
:10079000E2804FEA5454D4EB5555B8BF6D420CDD9E
:1007A0002C4480EA020281EA030382EA000083EA21
:1007B000010180EA020281EA0303362D88BF30BDC1
:1007C00011F0004F4FEA01314FF4801C4CEA113117
:1007D00002D0404261EB410113F0004F4FEA033376
:1007E0004CEA133302D0524263EB430394EA050F01
:1007F00000F0A780A4F10104D5F1200E0DDB02FA70
:100800000EFC22FA05F2801841F1000103FA0EF203
:10081000801843FA05F359410EE0A5F120050EF1C9
:10082000200E012A03FA0EFC28BF4CF0020C43FAFA
:1008300005F3C01851EBE37101F0004507D54FF007
:10084000000EDCF1000C7EEB00006EEB0101B1F557
:10085000801F1BD3B1F5001F0CD349085FEA30009D
:100860004FEA3C0C04F101044FEA445212F5800FA8
:1008700080F09A80BCF1004F08BF5FEA500C50F145
:10088000000041EB045141EA050130BD5FEA4C0C28
:10089000404141EB0101013C28BFB1F5801FE9D285
:1008A00091F0000F04BF01460020B1FA81F308BFA8
:1008B0002033A3F10B03B3F120020CDA0C3208DD74
:1008C00002F1140CC2F10C0201FA0CF021FA02F14F
:1008D0000CE002F11402D8BFC2F1200C01FA02F1BF
:1008E00020FA0CFCDCBF41EA0C019040E41AA2BFE4
:1008F00001EB0451294330BD6FEA04041F3C1CDAAC
:100900000C340EDC04F11404C4F1200220FA04F0CB
:1009100001FA02F340EA030021FA04F345EA030175
:1009200030BDC4F10C04C4F1200220FA02F001FA37
:1009300004F340EA0300294630BD21FA04F02946B9
:1009400030BD94F0000F83F4801306BF81F4801152
:100950000134013D4EE77FEA645C18BF7FEA655CC5
:1009600029D094EA050F08BF90EA020F05D054EA97
:10097000000C04BF1946104630BD91EA030F1EBF9C
:100980000021002030BD5FEA545C05D140004941A0
:1009900028BF41F0004130BD14F580043CBF01F593
:1009A000801130BD01F0004545F0FE4141F4700179
:1009B0004FF0000030BD7FEA645C1ABF1946104654
:1009C0007FEA655C1CBF0B46024650EA013406BF55
:1009D00052EA033591EA030F41F4002130BD00BF14
:1009E00090F0000F04BF0021704730B54FF48064D1
:1009F00004F132044FF000054FF0000150E700BF52
:100A000090F0000F04BF0021704730B54FF48064B0
:100A100004F1320410F0004548BF40424FF000019D
:100A20003EE700BF42004FEAE2014FEA31014FEAE0
:100A300002701FBF12F07F4393F07F4F81F060512F
:100A4000704732F07F4208BF704793F07F4F04BF7A
:100A500041F40021704730B54FF4607401F0004557
:100A600021F000411CE700BF50EA010208BF7047B7
:100A700030B54FF000050AE050EA010208BF7047A8
:100A800030B511F0004502D5404261EB41014FF411
:100A9000806404F132045FEA915C3FF4D8AE4FF019
:100AA00003025FEADC0C18BF03325FEADC0C18BFFC
:100AB000033202EBDC02C2F1200300FA03FC20FA4D
:100AC00002F001FA03FE40EA0E0021FA02F114449A
:100AD000BDE600BF70B54FF0FF0C4CF4E06C1CEAB3
:100AE00011541DBF1CEA135594EA0C0F95EA0C0F24
:100AF00000F0DEF82C4481EA030621EA4C5123EA97
:100B00004C5350EA013518BF52EA033541F48011C5
:100B100043F4801338D0A0FB02CE4FF00005E1FB78
:100B200002E506F00042E0FB03E54FF00006E1FBC2
:100B300003569CF0000F18BF4EF0010EA4F1FF0405
:100B4000B6F5007F64F5407404D25FEA4E0E6D4145
:100B500046EB060642EAC62141EA55514FEAC52056
:100B600040EA5E504FEACE2EB4F1FD0C88BFBCF5D2
:100B7000E06F1ED8BEF1004F08BF5FEA500E50F183
:100B8000000041EB045170BD06F0004646EA010149
:100B900040EA020081EA0301B4EB5C04C2BFD4EB7B
:100BA0000C0541EA045170BD41F480114FF0000E74
:100BB000013C00F3AB8014F1360FDEBF002001F0E2
:100BC000004170BDC4F10004203C35DA0C341BDC5C
:100BD00004F11404C4F1200500FA05F320FA04F02E
:100BE00001FA05F240EA020001F0004221F0004162
:100BF00010EBD37021FA04F642EB06015EEA430ED5
:100C000008BF20EAD37070BDC4F10C04C4F1200504
:100C100000FA04F320FA05F001FA04F240EA0200B7
:100C200001F0004110EBD37041F100015EEA430E88
:100C300008BF20EAD37070BDC4F1200500FA05F2A8
:100C40004EEA020E20FA04F301FA05F243EA020327
:100C500021FA04F001F0004121FA04F220EA020036
:100C600000EBD3705EEA430E08BF20EAD37070BD7C
:100C700094F0000F0FD101F00046400041EB01015C
:100C800011F4801F08BF013CF7D041EA060195F03E
:100C9000000F18BF704703F00046520043EB0303F8
:100CA00013F4801F08BF013DF7D043EA06037047E5
:100CB00094EA0C0F0CEA135518BF95EA0C0F0CD0F0
:100CC00050EA410618BF52EA4306D1D181EA030136
:100CD00001F000414FF0000070BD50EA410606BF30
:100CE0001046194652EA430619D094EA0C0F02D175
:100CF00050EA013613D195EA0C0F05D152EA0336BA
:100D00001CBF104619460AD181EA030101F00041D7
:100D100041F0FE4141F470014FF0000070BD41F020
:100D2000FE4141F4780170BD70B54FF0FF0C4CF4FA
:100D3000E06C1CEA11541DBF1CEA135594EA0C0F19
:100D400095EA0C0F00F0A7F8A4EB050481EA030E66
:100D500052EA03354FEA013100F088804FEA03334D
:100D60004FF0805545EA131343EA12634FEA02221B
:100D700045EA111545EA10654FEA00260EF00041DC
:100D80009D4208BF964244F1FD0404F5407402D22E
:100D90005B084FEA3202B61A65EB03055B084FEABF
:100DA00032024FF480104FF4002CB6EB020E75EBBC
:100DB000030E22BFB61A754640EA0C005B084FEAE4
:100DC0003202B6EB020E75EB030E22BFB61A754661
:100DD00040EA5C005B084FEA3202B6EB020E75EBAC
:100DE000030E22BFB61A754640EA9C005B084FEA24
:100DF0003202B6EB020E75EB030E22BFB61A754631
:100E000040EADC0055EA060E18D04FEA051545EA1F
:100E100016754FEA06164FEAC30343EA52734FEAC8
:100E2000C2025FEA1C1CC0D111F4801F0BD141EA41
:100E300000014FF000004FF0004CB6E711F4801FA6
:100E400004BF01430020B4F1FD0C88BFBCF5E06F86
:100E50003FF6AFAEB5EB030C04BFB6EB020C5FEA96
:100E6000500C50F1000041EB045170BD0EF0004EEB
:100E70004EEA113114EB5C04C2BFD4EB0C0541EA1D
:100E8000045170BD41F480114FF0000E013C90E61A
:100E900045EA060E8DE60CEA135594EA0C0F08BFDE
:100EA00095EA0C0F3FF43BAF94EA0C0F0AD150EADD
:100EB00001347FF434AF95EA0C0F7FF425AF104670
:100EC00019462CE795EA0C0F06D152EA03353FF498
:100ED000FDAE1046194622E750EA410618BF52EA15
:100EE00043067FF4C5AE50EA41047FF40DAF52EAE9
:100EF00043057FF4EBAE12E74FF0FF3C06E000BF86
:100F00004FF0010C02E000BF4FF0010C4DF804CD92
:100F10004FEA410C7FEA6C5C4FEA430C18BF7FEA52
:100F20006C5C1BD001B050EA410C0CBF52EA430C80
:100F300091EA030F02BF90EA020F0020704710F100
:100F4000000F91EA030F58BF994208BF90422CBF8F
:100F5000D8176FEAE37040F0010070474FEA410C88
:100F60007FEA6C5C02D150EA013C07D14FEA430CA6
:100F70007FEA6C5CD6D152EA033CD3D05DF8040B17
:100F8000704700BF8446104662468C461946634649
:100F900000E000BF01B5FFF7B7FF002848BF10F120
:100FA000000F01BD4DF808EDFFF7F4FF0CBF012065
:100FB00000205DF808FB00BF4DF808EDFFF7EAFFE1
:100FC00034BF012000205DF808FB00BF4DF808ED9C
:100FD000FFF7E0FF94BF012000205DF808FB00BF91
:100FE0004DF808EDFFF7CEFF94BF012000205DF81B
:100FF00008FB00BF4DF808EDFFF7C4FF34BF012028
:1010000000205DF808FB00BF4FEA410C7FEA6C5CF2
:1010100002D150EA013C0AD14FEA430C7FEA6C5CF2
:1010200002D152EA033C02D14FF0000070474FF06A
:10103000010070474FEA410212F5001215D211D596
:101040006FF47873B3EB625212D94FEAC12343F0C5
:10105000004343EA505311F0004F23FA02F018BF47
:10106000404270474FF00000704750EA013005D110
:1010700011F0004008BF6FF0004070474FF00000D3
:10108000704700BF53B94AB9002908BF00281CBFE8
:101090004FF0FF314FF0FF3000F0E2B8ADF1080C37
:1010A0006DE904CE10F0A0F8DDF804E0DDE90223DC
:1010B00004B0704700F1340191E838009C46A64620
:1010C0004CF8045D90E8FF0FE54600BD90EC210B65
:1010D000704700BF80EC210B704700BF90EC200BE5
:1010E000704700BF80EC200B704700BFD0EC200B96
:1010F000704700BFC0EC200B704700BFF0EC02014E
:10110000F0EC0211F0EC0221F0EC0231F0EC0241C3
:10111000F0EC0251F0EC0261F0EC0271F0EC0281B3
:10112000F0EC0291F0EC02A1F0EC02B1F0EC02C1A3
:10113000F0EC02D1F0EC02E1F0EC02F1704700BFFC
:10114000E0EC0201E0EC0211E0EC0221E0EC023103
:10115000E0EC0241E0EC0251E0EC0261E0EC0271F3
:10116000E0EC0281E0EC0291E0EC02A1E0EC02B1E3
:10117000E0EC02C1E0EC02D1E0EC02E1E0EC02F1D3
:10118000704700BFB0FC0181B0FC0191B0FC01A12F
:10119000B0FC01B1704700BFA0FC0181A0FC01912F
:1011A000A0FC01A1A0FC01B1704700BFEC4600B556
:1011B0002DE900502DE9FF1F4FF000032DE90C0031
:1011C00001A910F0C5FADDF840E012B0704700BF89
:1011D000EC4600B52DE900502DE9FF1F4FF000034C
:1011E0002DE90C0001A910F0EFFADDF840E012B093
:1011F000704700BFEC4600B52DE900502DE9FF1FF8
:101200004FF000032DE90C0001A910F0FFFADDF802
:1012100040E012B0704700BFEC4600B52DE9005029
:101220002DE9FF1F4FF000032DE90C0001AB10F07A
:10123000C3FADDF840E012B0704700BFEC4600B5DD
:101240002DE900502DE9FF1F4FF000032DE90C00A0
:1012500001AA10F037FBDDF840E012B0704700BF84
:10126000704700BF0348044B834202D0034B03B1D5
:1012700018477047C8060020C8060020000000007C
:101280000548064B1B1AD90F01EBA301491002D0E8
:10129000034B03B118477047C8060020C80600205A
:1012A0000000000010B5064C237843B9FFF7DAFFC1
:1012B000044B13B10448AFF300800123237010BD29
:1012C000C8060020000000009422010808B5054B64
:1012D0001BB105490548AFF30080BDE80840FFF7A2
:1012E000CFBF00BF00000000CC0600209422010800
:1012F00080B58AB000AF07F1140300221A605A606B
:101300009A60DA601A6100233B612E4B1B6B2D4AF9
:1013100043F0040313632B4B1B6B03F004033B618B
:101320003B690023FB60274B1B6B264A43F080037D
:101330001363244B1B6B03F08003FB60FB680023EB
:10134000BB60204B1B6B1F4A43F0010313631D4B13
:101350001B6B03F00103BB60BB6800237B60194B70
:101360001B6B184A43F002031363164B1B6B03F00D
:1013700002037B607B6800233B60124B1B6B114AAE
:1013800043F0080313630F4B1B6B03F008033B6030
:101390003B6800224FF480510B4800F0F9FF4FF4F6
:1013A00080537B610123BB610023FB6100233B620F
:1013B00007F114031946044800F04EFE00BF283719
:1013C000BD4680BD003802400004024080B500AF39
:1013D000114B124A1A60104B4FF4E1325A600E4B17
:1013E00000229A600C4B0022DA600B4B00221A613B
:1013F000094B0C225A61084B00229A61064B0022CD
:10140000DA61054801F0F4F90346002B01D002F03F
:1014100059FA00BF80BD00BFE40600200050004024
:1014200080B500AF114B124A1A60104B4FF4E132F5
:101430005A600E4B00229A600C4B0022DA600B4B74
:1014400000221A61094B0C225A61084B00229A6152
:10145000064B0022DA61054801F0CAF90346002B69
:1014600001D002F02FFA00BF80BD00BF6C07002042
:101470000048004080B58EB000AF786007F12403CB
:1014800000221A605A609A60DA601A617B681B68F1
:10149000674A934253D100233B62664B1B6C654AFB
:1014A00043F480131364634B1B6C03F480133B629F
:1014B0003B6A0023FB615F4B1B6B5E4A43F00403F6
:1014C00013635C4B1B6B03F00403FB61FB6900239C
:1014D000BB61584B1B6B574A43F008031363554BD2
:1014E0001B6B03F00803BB61BB694FF480537B6245
:1014F0000223BB620023FB6203233B6308237B635D
:1015000007F1240319464C4800F0A6FD04237B6232
:101510000223BB620023FB6203233B6308237B633C
:1015200007F124031946454800F096FD00220021EA
:10153000352001F0B4F8352001F0CDF873E07B6878
:101540001B683F4A934234D100237B61394B1B6CAB
:10155000384A43F400331364364B1B6C03F40033F6
:101560007B617B6900233B61324B1B6B314A43F04B
:10157000080313632F4B1B6B03F008033B613B69AC
:1015800060237B620223BB620023FB6203233B6375
:1015900007237B6307F124031946284800F05CFD0C
:1015A00000220021262001F07AF8262001F093F88D
:1015B00039E07B681B68234A934234D10023FB60E7
:1015C0001C4B1B6C1B4A43F480231364194B1B6C8C
:1015D00003F48023FB60FB680023BB60154B1B6B8F
:1015E000144A43F004031363124B1B6B03F0040310
:1015F000BB60BB684FF440637B620223BB62002385
:10160000FB6203233B6307237B6307F12403194633
:10161000094800F021FD00220021272001F03FF8B9
:10162000272001F058F800BF3837BD4680BD00BF05
:10163000005000400038024000080240000C024008
:10164000004400400048004080B400AFFEE780B492
:1016500000AFFEE780B400AFFEE780B400AFFEE766
:1016600080B400AFFEE780B400AF00BFBD465DF8B8
:10167000047B704780B400AF00BFBD465DF8047BBB
:10168000704780B400AF00BFBD465DF8047B704773
:1016900080B500AF01F08CF800BF80BD80B500AF11
:1016A000024801F023F900BF80BD00BF28070020D9
:1016B00080B500AF024801F019F900BF80BD00BF3E
:1016C0006C07002080B500AF024801F00FF900BFA1
:1016D00080BD00BFE406002080B483B000AF0023CB
:1016E0007B60104B5B6C0F4A43F4804353640D4B9B
:1016F0005B6C03F480437B607B6800233B60094B99
:101700001B6C084A43F080531364064B1B6C03F0B8
:1017100080533B603B6800BF0C37BD465DF8047BDF
:10172000704700BF0038024080B586B000AF7860D7
:101730007B68002B01D1012367E27B681B6803F003
:101740000103002B75D0884B9B6803F00C03042B1E
:101750000CD0854B9B6803F00C03082B12D1824BF5
:101760005B6803F48003B3F5800F0BD17E4B1B68DD
:1017700003F40033002B5BD07B685B68002B57D1F0
:10178000012342E27B685B68B3F5803F06D1764B6C
:101790001B68754A43F4803313601DE07B685B6807
:1017A000B3F5A02F0CD1704B1B686F4A43F4802314
:1017B00013606D4B1B686C4A43F4803313600BE07D
:1017C000694B1B68684A23F480331360664B1B68BF
:1017D000654A23F4802313607B685B68002B13D079
:1017E00000F0FAFF386108E000F0F6FF02463B69BE
:1017F000D31A642B01D9032307E25B4B1B6803F464
:101800000033002BF0D014E000F0E6FF386108E070
:1018100000F0E2FF02463B69D31A642B01D903238F
:10182000F3E1514B1B6803F40033002BF0D100E0CF
:1018300000BF7B681B6803F00203002B63D04A4B98
:101840009B6803F00C03002B0BD0474B9B6803F005
:101850000C03082B1CD1444B5B6803F48003002B62
:1018600016D1414B1B6803F00203002B05D07B68A7
:10187000DB68012B01D00123C7E13B4B1B6823F040
:10188000F8027B681B69DB00374913430B603AE0C1
:101890007B68DB68002B20D0344B01221A6000F0FB
:1018A0009BFF386108E000F097FF02463B69D31ABE
:1018B000022B01D90323A8E12B4B1B6803F0020381
:1018C000002BF0D0284B1B6823F0F8027B681B69C3
:1018D000DB00254913430B6015E0244B00221A60FE
:1018E00000F07AFF386108E000F076FF02463B69BD
:1018F000D31A022B01D9032387E11B4B1B6803F08A
:101900000203002BF0D17B681B6803F00803002B57
:1019100036D07B685B69002B16D0154B01221A600C
:1019200000F05AFF386108E000F056FF02463B69BC
:10193000D31A022B01D9032367E10B4B5B6F03F032
:101940000203002BF0D01BE0094B00221A6000F0CC
:1019500043FF38610EE000F03FFF02463B69D31AB7
:10196000022B07D9032350E1003802400000474210
:10197000800E4742884B5B6F03F00203002BEAD1D5
:101980007B681B6803F00403002B00F097800023A2
:10199000FB75814B1B6C03F08053002B0FD1002390
:1019A000BB607D4B1B6C7C4A43F0805313647A4BC5
:1019B0001B6C03F08053BB60BB680123FB75774B46
:1019C0001B6803F48073002B18D1744B1B68734A97
:1019D00043F48073136000F0FFFE386108E000F00C
:1019E000FBFE02463B69D31A022B01D903230CE10B
:1019F0006A4B1B6803F48073002BF0D07B689B68F4
:101A0000012B06D1644B1B6F634A43F0010313673C
:101A10001CE07B689B68052B0CD15F4B1B6F5E4AFB
:101A200043F0040313675C4B1B6F5B4A43F00103F5
:101A300013670BE0584B1B6F574A23F001031367E2
:101A4000554B1B6F544A23F0040313677B689B6854
:101A5000002B15D000F0C0FE38610AE000F0BCFE9B
:101A600002463B69D31A41F28832934201D90323DB
:101A7000CBE0494B1B6F03F00203002BEED014E0C8
:101A800000F0AAFE38610AE000F0A6FE02463B69BB
:101A9000D31A41F28832934201D90323B5E03E4B79
:101AA0001B6F03F00203002BEED1FB7D012B05D150
:101AB000394B1B6C384A23F0805313647B689B6955
:101AC000002B00F0A180344B9B6803F00C03082B23
:101AD0005CD07B689B69022B41D1314B00221A609C
:101AE00000F07AFE386108E000F076FE02463B69BD
:101AF000D31A022B01D9032387E0274B1B6803F07D
:101B00000073002BF0D17B68DA697B681B6A1A438B
:101B10007B685B6A9B011A437B689B6A5B08013B9D
:101B20001B041A437B68DB6A1B061B4913434B608B
:101B30001B4B01221A6000F04FFE386108E000F0F4
:101B40004BFE02463B69D31A022B01D903235CE00A
:101B5000114B1B6803F00073002BF0D054E0104BC6
:101B600000221A6000F038FE386108E000F034FE10
:101B700002463B69D31A022B01D9032345E0064BE9
:101B80001B6803F00073002BF0D13DE07B689B697C
:101B9000012B07D1012338E00038024000700040DB
:101BA000600047421B4B5B68FB607B689B69012BB5
:101BB00028D0FB6803F480027B68DB699A4221D15C
:101BC000FB6803F03F027B681B6A9A421AD1FA68ED
:101BD00047F6C07313407A68526A9201934211D15A
:101BE000FB6803F440327B689B6A5B08013B1B0483
:101BF0009A4207D1FB6803F070627B68DB6A1B06C0
:101C00009A4201D0012300E0002318461837BD4650
:101C100080BD00BF0038024080B584B000AF78605E
:101C200039607B68002B01D10123CCE0684B1B6835
:101C300003F007033A689A420CD9654B3A68D2B26E
:101C40001A70634B1B6803F007033A689A4201D08D
:101C50000123B8E07B681B6803F00203002B20D04F
:101C60007B681B6803F00403002B05D0594B9B686D
:101C7000584A43F4E05393607B681B6803F0080301
:101C8000002B05D0534B9B68524A43F4604393604A
:101C9000504B9B6823F0F0027B689B684D491343CF
:101CA0008B607B681B6803F00103002B44D07B68CA
:101CB0005B68012B07D1474B1B6803F40033002BF3
:101CC00019D101237FE07B685B68022B03D07B681E
:101CD0005B68032B07D13F4B1B6803F00073002B9D
:101CE00009D101236FE03B4B1B6803F00203002B7B
:101CF00001D1012367E0374B9B6823F003027B6827
:101D00005B68344913438B6000F066FDF8600AE0BD
:101D100000F062FD0246FB68D31A41F2883293421A
:101D200001D903234FE02B4B9B6803F00C027B6827
:101D30005B689B009A42EBD1254B1B6803F00703BD
:101D40003A689A420CD2224B3A68D2B21A70204BAF
:101D50001B6803F007033A689A4201D0012332E07E
:101D60007B681B6803F00403002B08D0194B9B68A9
:101D700023F4E0527B68DB68164913438B607B6871
:101D80001B6803F00803002B09D0124B9B6823F457
:101D900060427B681B69DB000E4913438B6000F0D7
:101DA00021F802460B4B9B681B0903F00F030A49FD
:101DB000CB5C22FA03F3094A1360094B1B681846EF
:101DC00000F0C6FC002318461037BD4680BD00BF9A
:101DD000003C024000380240B02201080800002008
:101DE000000000202DE9B04F94B000AF00237B64C9
:101DF0000023FB6400233B640023BB64794B9B6896
:101E000003F00C03082B0DD0082B00F2E180002B0F
:101E100002D0042B03D0DBE0734BBB64DBE0734BDD
:101E2000BB64D8E06F4B5B6803F03F037B646D4B92
:101E30005B6803F48003002B63D06A4B5B689B09EB
:101E40000022BB63FA63BB6BC3F308033B6300234D
:101E50007B63D7E90C4522462B464FF000004FF03C
:101E60000001590141EAD261500102460B46214668
:101E7000511A3961294663EB01037B614FF000027F
:101E80004FF00003D7E904AB59468B01514643EAB2
:101E9000916351468A015146B2EB0108594663EB02
:101EA00001094FF000024FF000034FEAC90343EA73
:101EB00058734FEAC80290469946234618EB03032D
:101EC000BB602B4649EB0303FB604FF000024FF071
:101ED0000003D7E9024529464B02214643EAD15384
:101EE00021464A02104619467B6C0022BB62FA6208
:101EF000D7E90A23FFF7C6F802460B461346FB64F0
:101F000058E0384B5B689B09002218461146C0F325
:101F100008033B6200237B62D7E9088942464B46AF
:101F20004FF000004FF00001590141EAD261500129
:101F300002460B464146B2EB010A494663EB010BF0
:101F40004FF000024FF000034FEA8B1343EA9A630D
:101F50004FEA8A12B2EB0A0463EB0B054FF0000262
:101F60004FF00003EB0043EA5473E20014461D46B1
:101F70004346E3183B604B4645EB03037B604FF061
:101F800000024FF00003D7E9004529468B022146A5
:101F900043EA915321468A02104619467B6C00227F
:101FA000BB61FA61D7E90623FFF76CF802460B46DE
:101FB0001346FB640B4B5B681B0C03F003030133FC
:101FC0005B003B64FA6C3B6CB2FBF3F3BB6402E076
:101FD000054BBB6400BFBB6C18465037BD46BDE81F
:101FE000B08F00BF003802400024F40000127A00D5
:101FF00080B400AF034B1B681846BD465DF8047BF8
:10200000704700BF0800002080B500AFFFF7F0FF69
:102010000246054B9B689B0A03F007030349CB5C10
:1020200022FA03F3184680BD00380240C02201089E
:1020300080B500AFFFF7DCFF0246054B9B685B0BEA
:1020400003F007030349CB5C22FA03F3184680BD73
:1020500000380240C022010880B489B000AF786027
:10206000396000237B6100233B610023BB610023B7
:10207000FB616BE10122FB6902FA03F37B613B68C0
:102080001B687A6913403B613A697B699A4240F068
:102090005A813B685B6803F00303012B05D03B6862
:1020A0005B6803F00303022B30D17B689B68BB6144
:1020B000FB695B00032202FA03F3DB43BA691340B6
:1020C000BB613B68DA68FB695B0002FA03F3BA693B
:1020D0001343BB617B68BA699A607B685B68BB61CC
:1020E0000122FB6902FA03F3DB43BA691340BB61C7
:1020F0003B685B681B0903F00102FB6902FA03F30A
:10210000BA691343BB617B68BA695A603B685B6814
:1021100003F00303032B17D07B68DB68BB61FB690B
:102120005B00032202FA03F3DB43BA691340BB618D
:102130003B689A68FB695B0002FA03F3BA691343D0
:10214000BB617B68BA69DA603B685B6803F00303D4
:10215000022B23D1FB69DA087B68083253F822305E
:10216000BB61FB6903F007039B000F2202FA03F334
:10217000DB43BA691340BB613B681A69FB6903F032
:1021800007039B0002FA03F3BA691343BB61FB69BF
:10219000DA087B680832B96943F822107B681B684B
:1021A000BB61FB695B00032202FA03F3DB43BA69FC
:1021B0001340BB613B685B6803F00302FB695B0093
:1021C00002FA03F3BA691343BB617B68BA691A6008
:1021D0003B685B6803F44033002B00F0B4800023BD
:1021E000FB60604B5B6C5F4A43F4804353645D4B20
:1021F0005B6C03F48043FB60FB685B4AFB699B08F4
:10220000023352F82330BB61FB6903F003039B00E8
:102210000F2202FA03F3DB43BA691340BB617B6808
:10222000524A93422BD07B68514A934225D07B6817
:10223000504A93421FD07B684F4A934219D07B6823
:102240004E4A934213D07B684D4A93420DD07B682F
:102250004C4A934207D07B684B4A934201D10723F3
:102260000EE008230CE006230AE0052308E004231F
:1022700006E0032304E0022302E0012300E0002340
:10228000FA6902F0030292009340BA691343BB61FA
:102290003549FB699B080233BA6941F823203B4B5F
:1022A0009B68BB613B69DB43BA691340BB613B6818
:1022B0005B6803F48013002B03D0BA693B691343B6
:1022C000BB61324ABB699360304BDB68BB613B69E1
:1022D000DB43BA691340BB613B685B6803F40013DE
:1022E000002B03D0BA693B691343BB61274ABB6922
:1022F000D360264B5B68BB613B69DB43BA69134023
:10230000BB613B685B6803F40033002B03D0BA6900
:102310003B691343BB611D4ABB6953601B4B1B6880
:10232000BB613B69DB43BA691340BB613B685B68D7
:1023300003F48033002B03D0BA693B691343BB61BC
:10234000124ABB691360FB690133FB61FB690F2B08
:102350007FF690AE00BF00BF2437BD465DF8047B1A
:10236000704700BF003802400038014000000240C2
:102370000004024000080240000C0240001002402D
:102380000014024000180240001C0240003C0140C2
:1023900080B483B000AF78600B467B8013467B70BF
:1023A0007B78002B03D07A887B689A6103E07B8876
:1023B0001A047B689A6100BF0C37BD465DF8047B48
:1023C000704780B584B000AF78607B689B6DFB6020
:1023D00000F002FAB8607B6893F83530DBB2022B6C
:1023E00008D07B6880225A657B68002283F83420FD
:1023F000012352E07B681B681A687B681B6822F027
:1024000016021A607B681B685A697B681B6822F099
:1024100080025A617B681B6C002B03D17B689B6C2C
:10242000002B07D07B681B681A687B681B6822F04A
:1024300008021A607B681B681A687B681B6822F0B8
:1024400001021A6013E000F0C7F90246BB68D31A14
:10245000052B0CD97B6820225A657B68032283F800
:1024600035207B68002283F83420032315E07B6845
:102470001B681B6803F00103002BE4D17B68DB6D54
:102480003F229A40FB689A607B68012283F83520DE
:102490007B68002283F83420002318461037BD469D
:1024A00080BD80B483B000AF78607B6893F835302E
:1024B000DBB2022B04D07B6880225A6501230CE03A
:1024C0007B68052283F835207B681B681A687B6867
:1024D0001B6822F001021A60002318460C37BD4623
:1024E0005DF8047B7047000080B485B000AF786071
:1024F0007B6803F00703FB600C4BDB68BB60BA68CA
:102500004FF6FF031340BB60FB681A02BB6813431E
:1025100043F0BF6343F40033BB60044ABB68D3603D
:1025200000BF1437BD465DF8047B704700ED00E046
:1025300080B400AF044BDB681B0A03F007031846A6
:10254000BD465DF8047B704700ED00E080B483B0C9
:1025500000AF0346FB7197F90730002B0BDBFB79CB
:1025600003F01F02074997F907305B09012000FAC1
:1025700002F241F8232000BF0C37BD465DF8047B12
:10258000704700BF00E100E080B483B000AF0346B5
:102590003960FB7197F90730002B0ADB3B68DAB230
:1025A0000C4997F907301201D2B20B4483F800238B
:1025B0000AE03B68DAB20849FB7903F00F03043BF9
:1025C0001201D2B20B441A7600BF0C37BD465DF83B
:1025D000047B704700E100E000ED00E080B489B0CA
:1025E00000AFF860B9607A60FB6803F00703FB6135
:1025F000FB69C3F10703042B28BF0423BB61FB69FC
:102600000433062B02D9FB69033B00E000237B6106
:102610004FF0FF32BB6902FA03F3DA43BB681A409A
:102620007B699A404FF0FF317B6901FA03F3D9438C
:102630007B680B40134318462437BD465DF8047B86
:102640007047000080B582B000AF78607B68013BC6
:10265000B3F1807F01D301230FE00A4A7B68013B7D
:1026600053600F214FF0FF30FFF78EFF054B002224
:102670009A60044B07221A60002318460837BD46AB
:1026800080BD00BF10E000E080B582B000AF786090
:102690007868FFF729FF00BF0837BD4680BD80B5C9
:1026A00086B000AF0346B9607A60FB7300237B619C
:1026B000FFF73EFF78617A68B9687869FFF78EFFA7
:1026C000024697F90F3011461846FFF75DFF00BF2D
:1026D0001837BD4680BD80B582B000AF0346FB71A0
:1026E00097F907301846FFF731FF00BF0837BD469E
:1026F00080BD80B582B000AF78607868FFF7A2FF38
:10270000034618460837BD4680BD000080B500AFBF
:102710000E4B1B680D4A43F4007313600B4B1B6890
:102720000A4A43F480631360084B1B68074A43F46A
:10273000807313600320FFF7A7FF0F2000F008F855
:10274000FEF7CAFF0023184680BD00BF003C0240D0
:1027500080B582B000AF7860124B1A68124B1B78BC
:1027600019464FF47A73B3FBF1F3B2FBF3F3184657
:10277000FFF7BFFF0346002B01D001230EE07B686B
:102780000F2B0AD8002279684FF0FF30FFF787FF40
:10279000064A7B681360002300E0012318460837CF
:1027A000BD4680BD0800002004000020000000207D
:1027B00080B400AF064B1B781A46064B1B681344C7
:1027C000044A136000BFBD465DF8047B704700BF3C
:1027D00004000020B007002080B400AF034B1B684A
:1027E0001846BD465DF8047B704700BFB007002067
:1027F00080B582B000AF78607B68002B01D10123E7
:102800003FE07B6893F83D30DBB2002B06D17B685C
:10281000002283F83C207868FEF72CFE7B68242297
:1028200083F83D207B681B68DA687B681B6822F4AC
:102830000052DA60786800F0DFFC7B681B681A6978
:102840007B681B6822F490421A617B681B685A6996
:102850007B681B6822F02A025A617B681B68DA6871
:102860007B681B6842F40052DA607B6800221A64BD
:102870007B68202283F83D207B68202283F83E205D
:10288000002318460837BD4680BD80B584B000AF30
:10289000F860B9601346FB80FB6893F83E30DBB20A
:1028A000202B1DD1BB68002B02D0FB88002B01D14F
:1028B000012316E0FB6893F83C30012B01D1022381
:1028C0000FE0FB68012283F83C20FB6800221A63BA
:1028D000FB881A46B968F86800F0B6FA034600E0CB
:1028E000022318461037BD4680BD000080B5BAB03F
:1028F00000AF78607B681B681B68C7F8E4307B68B2
:102900001B68DB68C7F8E0307B681B685B69C7F849
:10291000DC300023C7F8D8300023C7F8D430D7F80C
:10292000E43003F00F03C7F8D830D7F8D830002BC5
:102930000FD1D7F8E43003F02003002B09D0D7F8EB
:10294000E03003F02003002B03D0786800F099FBFF
:1029500056E2D7F8D830002B00F0DE80D7F8DC3014
:1029600003F00103002B06D1D7F8E03003F4907395
:10297000002B00F0D180D7F8E43003F00103002BE6
:102980000BD0D7F8E03003F48073002B05D07B68C0
:102990001B6C43F001027B681A64D7F8E43003F043
:1029A0000403002B0BD0D7F8DC3003F00103002B1D
:1029B00005D07B681B6C43F002027B681A64D7F871
:1029C000E43003F00203002B0BD0D7F8DC3003F027
:1029D0000103002B05D07B681B6C43F004027B686D
:1029E0001A64D7F8E43003F00803002B11D0D7F8AD
:1029F000E03003F02003002B05D1D7F8DC3003F0E2
:102A00000103002B05D07B681B6C43F008027B6838
:102A10001A647B681B6C002B00F0ED81D7F8E43062
:102A200003F02003002B08D0D7F8E03003F0200398
:102A3000002B02D0786800F024FB7B681B685B6980
:102A400003F04003402B0CBF01230023DBB2C7F887
:102A5000D4307B681B6C03F00803002B03D1D7F83C
:102A6000D430002B4FD0786800F02CFA7B681B68BC
:102A70005B6903F04003402B41D17B681B68143332
:102A8000C7F89C30D7F89C3053E8003FC7F898301F
:102A9000D7F8983023F04003C7F8D0307B681B6824
:102AA0001433D7F8D020C7F8A820C7F8A430D7F837
:102AB000A410D7F8A82041E80023C7F8A030D7F821
:102AC000A030002BD9D17B689B6B002B13D07B6887
:102AD0009B6B7D4A1A657B689B6B1846FFF7E1FC90
:102AE0000346002B16D07B689B6B1B6D7A68926B3C
:102AF000104698470EE0786800F090F90AE0786890
:102B000000F08CF906E0786800F088F97B68002214
:102B10001A6470E100BF6EE17B681B6B012B40F013
:102B20004A81D7F8E43003F01003002B00F0438112
:102B3000D7F8E03003F01003002B00F03C810023B5
:102B4000BB607B681B681B68BB607B681B685B683D
:102B5000BB60BB687B681B685B6903F04003402B6C
:102B600040F0B4807B689B6B1B685B68A7F8BE3045
:102B7000B7F8BE30002B00F040817B689B8DB7F822
:102B8000BE209A4280F039817B68B7F8BE20DA8592
:102B90007B689B6BDB69B3F5807F00F088807B6886
:102BA0001B680C33C7F88830D7F8883053E8003FEB
:102BB000C7F88430D7F8843023F48073C7F8B8306E
:102BC0007B681B680C33D7F8B820C7F89420C7F887
:102BD0009030D7F89010D7F8942041E80023C7F838
:102BE0008C30D7F88C30002BD9D17B681B6814331C
:102BF0007B677B6F53E8003F3B673B6F23F001032C
:102C0000C7F8B4307B681B681433D7F8B420C7F812
:102C10008020FB67F96FD7F8802041E80023BB676D
:102C2000BB6F002BE1D17B681B6814333B663B6EA6
:102C300053E8003FFB65FB6D23F04003C7F8B0305D
:102C40007B681B681433D7F8B020FA66BB66B96E90
:102C5000FA6E41E800237B667B6E002BE3D17B6834
:102C6000202283F83E207B6800221A637B681B6861
:102C70000C33FB64FB6C53E8003FBB64BB6C23F07C
:102C80001003C7F8AC307B681B680C33D7F8AC2056
:102C9000BA657B65796DBA6D41E800233B653B6D94
:102CA000002BE3D17B689B6B1846FFF78AFB7B68A0
:102CB0009A8D7B68DB8D9BB2D31A9BB219467868DC
:102CC00000F0B6F899E000BF8B2F00087B689A8D62
:102CD0007B68DB8D9BB2D31AA7F8CE307B68DB8D87
:102CE0009BB2002B00F08B80B7F8CE30002B00F0A9
:102CF00086807B681B680C33BB63BB6B53E8003F6B
:102D00007B637B6B23F49073C7F8C8307B681B68C8
:102D10000C33D7F8C8207A643B64396C7A6C41E88C
:102D20000023FB63FB6B002BE3D17B681B68143330
:102D30007B627B6A53E8003F3B623B6A23F00103FE
:102D4000C7F8C4307B681B681433D7F8C4203A63D3
:102D5000FB62F96A3A6B41E80023BB62BB6A002B55
:102D6000E3D17B68202283F83E207B6800221A632F
:102D70007B681B680C333B613B6953E8003FFB6099
:102D8000FB6823F01003C7F8C0307B681B680C3366
:102D9000D7F8C020FA61BB61B969FA6941E800233C
:102DA0007B617B69002BE3D1B7F8CE301946786898
:102DB00000F03EF823E0D7F8E43003F08003002B66
:102DC00009D0D7F8E03003F08003002B03D07868F7
:102DD00000F0EFF814E0D7F8E43003F04003002BE4
:102DE0000ED0D7F8E03003F04003002B08D078680D
:102DF00000F02FF904E000BF02E000BF00E000BFD8
:102E0000E837BD4680BD00BF80B483B000AF7860B6
:102E100000BF0C37BD465DF8047B704780B483B0BB
:102E200000AF786000BF0C37BD465DF8047B70478B
:102E300080B483B000AF78600B467B8000BF0C3756
:102E4000BD465DF8047B704780B485B000AFF86084
:102E5000B9601346FB80FB68BA689A62FB68FA881F
:102E60009A85FB68FA88DA85FB6800221A64FB6899
:102E7000222283F83E20FB68002283F83C20FB6876
:102E80001B69002B07D0FB681B68DA68FB681B68AE
:102E900042F48072DA60FB681B685A69FB681B6841
:102EA00042F001025A61FB681B68DA68FB681B6824
:102EB00042F02002DA60002318461437BD465DF860
:102EC000047B704780B495B000AF78607B681B6866
:102ED0000C337B637B6B53E8003F3B633B6B23F41A
:102EE0009073FB647B681B680C33FA6C3A64FB6379
:102EF000F96B3A6C41E80023BB63BB6B002BE5D157
:102F00007B681B6814333B623B6A53E8003FFB61FC
:102F1000FB6923F00103BB647B681B681433BA6C44
:102F2000FA62BB62B96AFA6A41E800237B627B6A93
:102F3000002BE5D17B681B6B012B19D17B681B68CB
:102F40000C33FB60FB6853E8003FBB60BB6823F0B9
:102F500010037B647B681B680C337A6CBA617B61FD
:102F60007969BA6941E800233B613B69002BE5D1EF
:102F70007B68202283F83E207B6800221A6300BF12
:102F80005437BD465DF8047B704780B584B000AF10
:102F900078607B689B6BFB60FB680022DA85FB68CE
:102FA0000022DA84F868FFF739FF00BF1037BD460A
:102FB00080BD80B485B000AF78607B6893F83D3009
:102FC000DBB2212B3ED17B689B68B3F5805F14D1C7
:102FD0007B681B69002B10D17B681B6AFB60FB6858
:102FE0001B881A467B681B68C2F308025A607B681C
:102FF0001B6A9A1C7B681A6208E07B681B6A591C72
:103000007A6811621A787B681B685A607B68DB8C6F
:103010009BB2013B9BB27A681946D184002B0FD139
:103020007B681B68DA687B681B6822F08002DA60C4
:103030007B681B68DA687B681B6842F04002DA60D4
:10304000002300E0022318461437BD465DF8047BD8
:10305000704780B582B000AF78607B681B68DA6823
:103060007B681B6822F04002DA607B68202283F8CC
:103070003D207868FFF7C8FE002318460837BD4694
:1030800080BD80B58CB000AF78607B6893F83E302F
:10309000DBB2222B40F0AB807B689B68B3F5805F8E
:1030A00017D17B681B69002B13D10023FB627B685F
:1030B0009B6ABB627B681B685B689BB2C3F30803B7
:1030C0009AB2BB6A1A807B689B6A9A1C7B689A6278
:1030D00026E07B689B6AFB620023BB627B689B687F
:1030E000B3F5805F07D07B689B68002B0AD17B68B3
:1030F0001B69002B06D17B681B685B68DAB2FB6A30
:103100001A7008E07B681B685B68DBB203F07F0322
:10311000DAB2FB6A1A707B689B6A5A1C7B689A62F7
:103120007B68DB8D9BB2013B9BB27A681946D185E7
:10313000002B5AD17B681B68DA687B681B6822F019
:103140002002DA607B681B68DA687B681B6822F4FF
:103150008072DA607B681B685A697B681B6822F0A2
:1031600001025A617B68202283F83E207B681B6B3A
:10317000012B35D17B6800221A637B681B680C33F6
:103180007B617B6953E8003F3B613B6923F010039F
:103190007B627B681B680C337A6A3A62FB61F9696F
:1031A0003A6A41E80023BB61BB69002BE5D17B682B
:1031B0001B681B6803F01003102B0AD10023FB606F
:1031C0007B681B681B68FB607B681B685B68FB6037
:1031D000FB687B689B8D19467868FFF729FE02E043
:1031E000786800F0D5FA002302E0002300E0022313
:1031F00018463037BD4680BD2DE9B04FC0B000AF96
:10320000C7F8F400D7F8F4301B681B6923F440506A
:10321000D7F8F430D968D7F8F4301A6840EA0103D7
:103220001361D7F8F4309A68D7F8F4301B691A4361
:10323000D7F8F4305B691A43D7F8F430DB691343ED
:10324000C7F8F830D7F8F4301B68DB6823F4164170
:1032500021F00C01D7F8F4301A68D7F8F8300B4396
:10326000D360D7F8F4301B685B6923F44070D7F85B
:10327000F4309969D7F8F4301A6840EA01035361D1
:10328000D7F8F4301A688F4B9A4205D0D7F8F4304B
:103290001A688D4B9A4204D1FEF7CAFEC7F8FC00AB
:1032A00003E0FEF7B1FEC7F8FC00D7F8F430DB69A5
:1032B000B3F5004F40F00C81D7F8FC300022C7F87E
:1032C000E830C7F8EC20D7E93A4522462B4691185A
:1032D000B9655B41FB65D7E91623214612EB01086E
:1032E000294643EB01094FF000024FF000034FEA7B
:1032F000C90343EA58734FEAC802904699462346E9
:1033000018EB0303C7F8E0302B4649EB0303C7F87B
:10331000E430D7F8F4305B680022C7F8D830C7F83B
:10332000DC20D7E936120B46DB183B65134642EB2F
:1033300003037B65D7E91423D7E93801FDF7A2FE23
:1033400002460B46614BA3FB02235B091C01D7F825
:10335000FC300022C7F8D030C7F8D420D7E9348930
:1033600042464B469118B9645B41FB64D7E912238E
:10337000414612EB010A494643EB010B4FF00002B4
:103380004FF000034FEACB0343EA5A734FEACA02F5
:1033900092469B4643461AEB0303C7F8C8304B4698
:1033A0004BEB0303C7F8CC30D7F8F4305B6800224E
:1033B000C7F8C030C7F8C420D7E930120B46DB1875
:1033C0003B64134642EB03037B64D7E91023D7E940
:1033D0003201FDF757FE02460B4611463B4BA3FB5D
:1033E00001235B09642202FB03F3CB1ADB0003F128
:1033F0003202364BA3FB02235B095B0003F4F87334
:103400001C44D7F8FC300022C7F8B830C7F8BC20FD
:10341000D7E92E8942464B469118B9635B41FB635D
:10342000D7E90E2341465118396349464B417B6326
:103430004FF000024FF00003D7E90CAB5946CB0028
:10344000514643EA51735146CA0010461946034695
:1034500042469B18C7F8B0304B460A4642EB03037E
:10346000C7F8B430D7F8F4305B680022C7F8A8304A
:10347000C7F8AC20D7E92A120B46DB18BB6213460B
:1034800042EB0303FB62D7E90A23D7E92C01FDF7DE
:10349000F9FD02460B460D4BA3FB02135B096421A9
:1034A00001FB03F3D31ADB003233084AA2FB0323E8
:1034B0005B0903F00702D7F8F4301B6822449A60D6
:1034C00006E100BF00100140001401401F85EB51D0
:1034D000D7F8FC300022C7F8A030C7F8A420D7E9FD
:1034E000288942464B46911839625B417B62D7E995
:1034F000082341465418494643EB01054FF00002AA
:103500004FF00003EB0043EA5473E20014461D46FB
:103510004346E318C7F898304B4645EB0303C7F81A
:103520009C30D7F8F4305B680022C7F89030C7F8B9
:1035300094204FF000024FF00003D7E924452946BC
:103540008B00214643EA917321468A00D7E9260180
:10355000FDF798FD02460B46604BA3FB02235B0977
:103560001C01D7F8FC300022C7F88830C7F88C203F
:10357000D7E9228942464B469118B9615B41FB610C
:10358000D7E9062341465118396149464B417B61D1
:103590004FF000024FF00003D7E904AB5946CB00CF
:1035A000514643EA51735146CA0010461946034634
:1035B00042469B18C7F880304B460A4642EB03034D
:1035C000C7F88430D7F8F4305B680022BB67FA672D
:1035D0004FF000024FF00003D7E91E8949468B00E7
:1035E000414643EA917341468A00D7E92001FDF73D
:1035F00049FD02460B461146384BA3FB01235B09EC
:10360000642202FB03F3CB1A1B013233334AA2FBC1
:1036100003235B0903F0F0031C44D7F8FC300022BD
:103620003B677A67D7E91C8942464B469118B960D7
:103630005B41FB60D7E90223414651183960494696
:103640004B417B604FF000024FF00003D7E900AB25
:103650005946CB00514643EA51735146CA001046C1
:103660001946034642469B18BB664B460A4642EB48
:103670000303FB66D7F8F4305B6800223B667A668A
:103680004FF000024FF00003D7E9188949468B003C
:10369000414643EA917341468A00D7E91A01FDF792
:1036A000F1FC02460B460D4BA3FB02135B096421A0
:1036B00001FB03F3D31A1B013233084AA2FB032395
:1036C0005B0903F00F02D7F8F4301B6822449A60BC
:1036D00000BF07F58077BD46BDE8B08F1F85EB5171
:1036E00080B400AF064BD3F88830054A43F470032A
:1036F000C2F8883000BFBD465DF8047B704700BF4C
:1037000000ED00E080B5BEB000AF3B1D184600F0F4
:10371000DEF8002387F8F730FEF7F8FF00F05EF8D8
:10372000FDF7E6FDFDF77CFEFDF750FE042205499E
:103730000548FFF7AAF8FEE73B1D184600F0F4F82D
:1037400000F030F9B4070020E406002080B485B012
:1037500000AF3B1DBB600023FB600AE0FB68BA685A
:1037600013440A49FA680A4412781A70FB68013354
:10377000FB60FB68032BF1DD7B6807EE903AB0EE4F
:10378000670A1437BD465DF8047B7047B407002014
:1037900090B583B000AF78600C4B1C68FFF7D6FF84
:1037A000F0EE407A0A4AA3001344C3ED007A074BB7
:1037B0001B680133054A1360042206490648FFF7D7
:1037C00064F800BF0C37BD4690BD00BF480900201B
:1037D000B8070020B4070020E406002080B594B0AC
:1037E00000AF07F1200330220021184609F02EFD1A
:1037F00007F10C0300221A605A609A60DA601A61BD
:103800000023BB602D4B1B6C2C4A43F08053136488
:103810002A4B1B6C03F08053BB60BB6800237B60AA
:10382000274B1B68264A43F480431360244B1B68D4
:1038300003F480437B607B6801233B624FF4803359
:103840007B620223BB634FF48003FB6308233B646A
:103850004FF4A8737B640223BB640423FB6407F169
:1038600020031846FDF760FF0346002B14BF012319
:103870000023DBB2002B01D000F024F80F23FB6003
:1038800002233B6100237B614FF4A053BB614FF4E3
:103890008053FB6107F10C0305211846FEF7BCF9C4
:1038A0000346002B14BF01230023DBB2002B01D001
:1038B00000F008F800BF5037BD4680BD0038024018
:1038C0000070004080B400AF72B600BFFEE780B465
:1038D00085B000AF78607B684FF000021A607B68AB
:1038E0004FF000025A607B684FF000029A607B68DC
:1038F0004FF00002DA607B68A5221A740023FB6097
:1039000008E07A68FB681344113300221A70FB68E0
:103910000133FB60FB68DD2BF3DD7B681846143751
:10392000BD465DF8047B704780B582B000AF78601B
:103930007B681133002B04D07B681133184600F0EC
:103940002FF87B6818460837BD4680BDDFF834D0B5
:103950000D480E490E4A002302E0D458C4500433E7
:10396000C4188C42F9D30B4A0B4C002301E01360BE
:103970000432A242FBD3FFF7B3FE09F0DFFCFFF7EE
:10398000C1FE70470000022000000020C806002091
:10399000703C0108C8060020840C0020FEE70000EF
:1039A00006F096BD1EB400F08DF81EBCFDF710FCAD
:1039B000F0B50278472A83B00C461D4619D0264E32
:1039C0000020336801909B683046984778B1019B8E
:1039D0001B68019302272368314620461E6901AA0D
:1039E0000123B04710BB0746384603B0F0BD01279E
:1039F000F1E743784E2BE2D18378552BDFD1C378A2
:103A0000432BDCD10379462B1AD00379432BD6D133
:103A100043792B2BD3D183792B2BD0D1C379012B95
:103A2000CDD808D050F8206C5830CAE7019B2B60E5
:103A3000384603B0F0BD50F8200C50F8786CC0E761
:103A400043794F2BE1D18379522BDED1C379002BFF
:103A5000DBD1024E1846B4E7E4220108DC2201085B
:103A600010B5044600F078F8224612F82039472BAA
:103A700004D0836823BB8260012010BD63784E2B85
:103A8000F7D1A378552BF4D1E378432BF1D12379E7
:103A9000432BEED163792B2BEBD1A3792B2BE8D1E0
:103AA000E379012BE5D854F8043C0133012B44F8A9
:103AB000043CE1D1836844F8083C8260012010BDD9
:103AC00000F06CFB08B500F047F8836883B393F807
:103AD0002020472A04D00022826003F1200008BD84
:103AE00093F821204E2AF6D193F82220552AF2D1BC
:103AF00093F82320432AEED193F82420432AEAD1D5
:103B000093F825202B2AE6D193F826202B2AE2D100
:103B100093F82720012ADED8DA69013ADA61002A0F
:103B2000DBD19969816000229A6103F1200008BD10
:103B300000F034FB704700BF00487047C8220108FE
:103B400010B50421044606F0C5FC204610BD00BF98
:103B5000004870474C090020004870474C0900207D
:103B6000502870B51DD0844600F00F000C2855D8A1
:103B7000DFE800F0074426071E545454542A220755
:103B80001E00104650F8046B4EB10CF07004102C5F
:103B900008BF11460E441CF0800F18BF36681E6027
:103BA00070BDD01C20F0030050F8046B1E6070BD87
:103BB000104650F8086BE7E7104630F9026BE3E770
:103BC000104630F8026BDFE700261046344610F846
:103BD000015B05F07F0E0EFA04FE15F0800F46EA39
:103BE0000E0604F10704F2D11F2CCDD86D06CBD5FB
:103BF0004FF0FF3505FA04F42643C6E700261046C9
:103C0000344610F8015B05F07F0E0EFA04FE2D0617
:103C100046EA0E0604F10704F3D4B5E709F062FAA8
:103C2000FF2808B5034619D003F07002302A084671
:103C300016D005D8202A09D1BDE808400EF0D7BA21
:103C4000402A09D1BDE808400EF0BEBA02D813F0F0
:103C5000600F03D009F046FA502AFBD1002008BDBE
:103C6000BDE808400EF0C0BAF8B50C461546064649
:103C700008B10EF0A9FA286014F8017BFF2F28D1B3
:103C80006860204610F8013BFF2B32D0102300243F
:103C90002B75224610F8011B01F07F0393400906A3
:103CA00044EA030402F10702F4D40444EC6010F87F
:103CB000013B6B750024224610F8011B01F07F03C5
:103CC00093401C430B0602F10702F5D404442C6117
:103CD000F8BD31463846FFF7A3FF224601462B1DAB
:103CE0003846FFF73DFF0446204610F8013BFF2B06
:103CF000CCD12B750024D9E72DE9F04F00F0030457
:103D000093B00023012C08930F46904613D0022C49
:103D100008D1414638460EF041FA40B9082013B0A8
:103D2000BDE8F08F002C00F0938009F0DBF909204A
:103D300013B0BDE8F08F0DF1300A10F00804CDF893
:103D400000A000F09A8044F0020202920C910C2232
:103D5000194640460DF092FD40460EF03BFA834670
:103D60000028D6D0524601464046FFF77DFF414627
:103D700005469DF84400FFF753FF0DF12C09002381
:103D80000E901946CDF800900F2240460DF050FDE0
:103D90000B9B23F001035E1E109B9D4280F0BD80B3
:103DA0009DF8454000212046FFF73AFF2A4601468C
:103DB00009AB2046FFF7D4FE9DF84550044600218C
:103DC0002846FFF72DFF224601460AAB2846FFF79B
:103DD000C7FE9DF84550044600212846FFF720FF06
:103DE000224601464B462846FFF7BAFE0024054608
:103DF000224615F8011B01F07F0393401C430B067C
:103E000002F10702F5D40C9B099A1344B34217D967
:103E1000029BD8072DD50024039400231946CDF822
:103E2000009040460D22089D0DF002FD039B3B6370
:103E30000B9BC7F82CB0C7E9095406203B626EE71C
:103E40000A9A1344B34272D8109BAB42A8D8DFE75A
:103E500002073FF55EAF012302930DF1300A002304
:103E6000CDF800A00C22194640460C970DF006FD37
:103E700072E7190758D500F091F90D6A23460D2213
:103E8000214640460DF0D4FC0C9B9D4202D00223FB
:103E90000293E4E7234621460C22CDF800A04046D9
:103EA0000C970DF0EBFC3A6B0392D7E90A43002A1A
:103EB0003AD09B460DF12C09002C54DB032500233E
:103EC0001A461946CDF8009040460B970DF0D6FCE7
:103ED000002319460122CDF8009040460B940DF0C6
:103EE000CDFC002319460F22CDF8009040460DF07E
:103EF0009FFC0B9A0399CDF8009002F001020A434F
:103F000000230B9240460F2219460DF0B7FC022DFC
:103F100024D0072013B0BDE8F08F029BDE073FF5E9
:103F20007AAF029B1B07A6D4384606F0F3FA0B9B28
:103F3000002B3FF4EEAE0D9A13440393002C36D1C0
:103F4000002B3FF4E6AE029BDD073FF5E2AE029B9D
:103F50001A0740F1168100240225B0E73846FFF722
:103F60007FFD0720DBE66FF040431B1B1E465246D9
:103F700059464046FFF778FE9DF844004146FFF75A
:103F80004FFE0E9005460F9850F8263000EB860045
:103F900033B10246002352F8041F01330029FAD13D
:103FA000C7E90A35042378633B63032587E7109E3E
:103FB000039B013C2644002B3FF4ABAE029B002E3A
:103FC00000F0D78013F00803049300F0C980472362
:103FD0003B704E237B705523BB704323FB704623FD
:103FE0003B714F237B715223BB710023FB71002374
:103FF000CDF818B0CDF814809B46CDF81CA0002455
:10400000224616F8011B01F07F039340080644EA9C
:10401000030402F10702F4D41F2A05D8490603D588
:10402000012393405B421C43002530462A4610F88A
:10403000011B01F07F0393401D430B0602F10702B1
:10404000F5D41F2A05D84B0603D5012393405B42C4
:104050001D43002C34D036DC17B1049B002B4FD00D
:104060006FF0404A0F9BAAEB040A53F82A30B3B111
:10407000002D6AD02E44C2E7A3005B420F9A0E992E
:104080001A444B46FFF76CFD0B9941B1002FEFD05E
:1040900008AB00223846FFF78BFC0028E8D0029BD3
:1040A000DDF81CA0DB07DDE9058B3FF5B6AE049B10
:1040B000002B3FF401AF002CBFF600AF00F07CF8FE
:1040C0004FF0010BD4E79DF84400FF2831D000F0F9
:1040D0000703042B3FF629AE01A252F823F000BFDC
:1040E000794000082B3D0008FB400008794000089B
:1040F000F5400008E3005B42C0E763005B42BDE7B8
:104100006FF0404A0F9B089A0B92AAEB040A03EB4C
:104110008A0853F82A1019B90DE058F8041F51B154
:1041200041444B4600223846FFF742FC0028F4D0B9
:104130009EE70023A2E7029BD8075646DDE9058BE0
:10414000DDF81CA03FF569AE11E75B46DDF8148091
:10415000002B3FF4DEAD029BD9073FF5DAADFAE65E
:10416000FB79012B0CBF57F8203C07F1580308934B
:104170003DE7DA073FF5CDAD029B13F008047FF46D
:10418000EAAE02259BE606F047FA74E608B58047DA
:1041900008F0A8FF06F040FA08F0A4FF08B5034BAA
:1041A0001868BFF35B8FFFF7F1FF00BF100000201E
:1041B00008B58047FFF7F2FF08B5034B1868BFF357
:1041C0005B8FFFF7F5FF00BF0C000020024B186863
:1041D000BFF35B8F704700BF10000020024B1868D0
:1041E000BFF35B8F704700BF0C00002010B5034B7E
:1041F0000360044600F044F9204610BDB8230108CE
:1042000010B5054B0360044600F03AF920460C2136
:1042100006F060F9204610BDB823010870B582B0E1
:104220000446069E96420D4609D0A068046806968C
:10423000246A2946A44602B0BDE87040604719468A
:104240000192009300F060F8DDE900320028ECD024
:10425000062002B070BD00BF2DE9F04F0C4681B0C2
:104260001946DDE90A69DDE90C879B460546924659
:1042700000F04AF880B9464522D0A8682146046873
:10428000CDE90C87CDE90A69E4695B465246A4464C
:1042900001B0BDE8F04F6047002C3E6087F804A0F5
:1042A00009DB2644B0450CBF06260126BE7100205E
:1042B00001B0BDE8F08F0234F9D10123BB71F6E7FC
:1042C0004946284600F020F80028D6D087F805A0F7
:1042D000EDE700BF2DE9F04106460F4614461D46A6
:1042E00000F008F948B9B068016822468C692B468D
:1042F0003946A446BDE8F0416047BDE8F08100BF03
:10430000704700BF00207047814211D008B5406857
:1043100003782A2B0AD049680B782A2B08BF013171
:10432000FBF752FFB0FA80F0400908BD002008BD3D
:104330000120704770B53B4B1A7882B0002A41D1FA
:1043400001241C7006F092FA002831D04468364DE2
:1043500023782A2B08BF013400224FF0FF3011468A
:1043600001AB0190204606F051F82B683022DB6843
:10437000064601212D4806F0EBFD019B93B12B6809
:104380002046D96806F0E8FB2B682948DB68022242
:10439000012106F0DDFD019B13B9304608F0E0FB7A
:1043A00006F02CFA2B683046D96806F0D5FBEBE70F
:1043B0001D4B20481B682D22DB68214606F0C8FDF6
:1043C00008F090FE184B1C481B681D22DB68012179
:1043D00006F0BEFD08F086FE01290C4619D106F054
:1043E0001BF903689B6898472B682146DB680446E5
:1043F0000B22124806F0ACFD2B682046D96806F067
:10440000ABFB2B680A20D96806F030FB06F042F9B6
:10441000D6E706F001F906F03DF9D1E706F03AF9E2
:10442000FFF7C0FA58090020B8060020142401083C
:10443000482401084C240108F42301087C240108C5
:1044400070B5036884B000249E6903941023154658
:104450000293CDE900446B461268B0479DF80430E2
:1044600003F00603062B03BF009B2B6001202046B0
:1044700004B070BD0098904214BF01200620704720
:1044800010B5034B03600446FFF73AFF204610BD0A
:10449000C024010810B5054B03600446FFF730FF48
:1044A0002046082106F016F8204610BDC024010859
:1044B0002DE9F041069F0899099E8F4204469046D7
:1044C0001D460CD029462046FFF71EFF20B10123D0
:1044D000376086F80480B3710020BDE8F081079949
:1044E000FFF712FF0028EDD086F805800020BDE818
:1044F000F08100BF38B515461C46FFF705FF00B92F
:1045000038BD082206232560E260237138BD00BF54
:104510002DE9F041064617461D460C46FFF7F4FE0E
:1045200048B9032D07D823683A46314620465B69CF
:10453000BDE8F0411847BDE8F08100BF312970B5F2
:10454000864645D828292AD80A2920D9A1F10B0C5A
:10455000324C5FFA8CFC012000FA0CF00440002C75
:104560004DD0D2B1DEE90540844216DADEF81050B3
:1045700004EB840C05EB8C0001340026C0E90166D5
:10458000CEF8144005F82C10C0E9032370BD0429AF
:1045900030D9A1F109000128E3D9002070BDA1F1B3
:1045A00029000828F9D801A454F820F0654500082E
:1045B000F9450008F54500089B450008F545000849
:1045C000654500086545000863450008F945000891
:1045D000A1F13400C0B21D28DFD8114C4FF0010CFE
:1045E0000CFA00FC0CEA0404002CBAD10D480CEAC9
:1045F000000070B1002AD0D0002BB3D1CDE710F469
:104600007F1FAFD1084C0440002CC6D0002AF3D144
:10461000C3E71CF0505CC0D0A4E700BFFE1F802F92
:104620000711C701F82E000A01004000F0B5C2686A
:1046300011786E29864625D03039CBB2092B2BD87C
:104640000026164D00206FF0004402E0B0EBD30FBF
:1046500015DC0132CEF80C201378303B5FFA83FC76
:1046600000EB800001EB4000BCF1090F1946A4EB00
:104670000303A5FB0373E9D906B14042F0BD4FF037
:10468000FF30F0BD531CC36051783039CAB2092ADB
:1046900002D81A460126D4E70020F0BDCDCCCCCC00
:1046A00010B5044629B9C3681A786AB15A1CC260A9
:1046B000197868290CD0762906D12046FFF7B6FF75
:1046C000E3681A785F2A01D0002010BD0133E3604F
:1046D0002046FFF7ABFFE3681A785F2AF4D1013375
:1046E000E360012010BD00BF10B4C3680A4619780A
:1046F000522910D04F2903D010465DF8044B704763
:10470000C46A202103340133C462C3605DF8044BE2
:104710000023FFF713BFC46A1F210234F3E700BF71
:10472000002966D038B505460C46A368012B39DC54
:10473000D5F81C01B0F5806F03F1010332DC22785B
:10474000A360531E502B2DD8DFE803F03131314CDC
:104750002C2C2D2D3131313131313131313131315B
:104760003131312C3131313131313131313142421C
:1047700031312C313131312931313131312C2D313F
:10478000313131313131313131313131312C2C3123
:10479000292929292C313131313131313100E46875
:1047A000002CC2D138BD2469002CBED1FAE7E168E3
:1047B000431CC5F81C312846FFF7B2FF2169284683
:1047C000FFF7AEFFD5F81C31013BC5F81C3138BDF1
:1047D000E1680B78052BEBD1D5F838310133C5F8FA
:1047E0003831E5E7D5F84431E1680133C5F84431A3
:1047F000DEE77047034648B1002304E0C2682AB1EF
:104800000069013310B102782F2AF7D0184670479B
:10481000C3681A785F2A01D00120704710B55A1C6E
:10482000C2605A785F2A044604D0FFF7FFFEC043F7
:10483000C00F10BD0233C360FFF7F8FE002809DB8C
:10484000092805DDE3681A785F2A03D10133E360A4
:10485000012010BD002010BD20B909E039B1006968
:10486000013930B103782F2BF8D000207047C06891
:1048700070477047F0B514465268A5684B1C134446
:10488000AB4283B00E46074611D8E5686DB9636840
:104890002068324618443946FBF752FED4E900320C
:1048A00033449D5463683344636003B0F0BDE268F1
:1048B000002AFAD155B16D00AB42FCD820682946D8
:1048C00008F0A6FE38B12060A560DEE7022B4FF0AD
:1048D0000205F0D8F2E70190206808F041F9019B49
:1048E0000122C4E90033C4E90232DEE70378722B07
:1048F00007D0562B05D04B2B03D0442B03D00020E0
:10490000704701207047407800F0DF034F2BF8D04C
:10491000773801288CBF002001207047D0F8003183
:10492000FF2B70B504460D4606D05A1CC4F8002172
:10493000E55484F8045170BD0026194680F8FF60E4
:10494000D0E942329847D4F8283101221344C4F800
:1049500028313346C4F80021E55484F8045170BD71
:10496000D0F810319BB1CA685B68002A1B6909DB6B
:1049700023B907E042B11B69013A1BB119782F290D
:10498000F8D0002318467047DB68184670470122AC
:10499000C0F81821F6E700BF002940D02DE9F0410A
:1049A000DFF884801F4F05460C4601262378082B2C
:1049B00013D8082B1ED8DFE803F00D1D1D1D1D2781
:1049C0000D232300172B15D9183BDBB227FA03F36D
:1049D000DB070FD50020BDE8F0812C2BF2D9323B4C
:1049E000DBB21B2B06D806FA03F212EA080FF1D14C
:1049F000012B05D0E1682846FFF7CEFF0028EAD159
:104A00002469002CD2D1E5E721462846FFF7A8FF0C
:104A10000028DFD003782F2BDCD1BDE8F081002007
:104A2000704700BF018010000100E30C2DE9F04148
:104A3000044608460D46FBF723FE40B3013DD4F87B
:104A400000112F184FF0000809E00B46BD4201F19C
:104A50000101C4F80011E65484F8046117D0FF295D
:104A600015F8016FF1D1D4E9423284F8FF80204675
:104A70009847D4F8283101210B44C4F82831002389
:104A8000BD42C4F80011E65484F80461E7D1BDE8E2
:104A9000F08100BF38B5C3681A78542A24D15A1C53
:104AA000C2605A785F2A044620D06E2A1CD0FFF7D5
:104AB000BDFD411C18D4E3681A785F2A14D1013374
:104AC000D4E905208242E3600EDA236902EB820C0E
:104AD00003EB8C0001320025C0E90155626105221B
:104AE00003F82C20C16038BD002038BD02330021FE
:104AF000E6E700BF2DE9F04188B00A4604461A49AE
:104B000001A806F035F801A8FBF7BAFD40B301ADE6
:104B1000D4F800112F184FF0000809E00B46BD42F1
:104B200001F10101C4F80011E65484F8046117D0C2
:104B3000FF2915F8016BF1D1D4E9423284F8FF80E6
:104B400020469847D4F8283101210B44C4F8283175
:104B50000023BD42C4F80011E65484F80461E7D193
:104B600008B0BDE8F08100BFE424010870B5044638
:104B7000FFF75CFD051E46DDE66863689B1B9D42F2
:104B80003EDCA26873195207E36004D5725D242AE3
:104B900004BF0133E360092D22DD2A490822304693
:104BA00008F0A8FA30B9337A2E2B2ED05F2B2CD0F8
:104BB000242B2AD0D4E90532934221DA206903EB71
:104BC000830200EB820001330022C0E9012263610D
:104BD00000230370C0E90133C0E90365A06270BD22
:104BE000D4E9053293420BDA206903EB830200EB30
:104BF000820001330022C0E901226361002EE7D167
:104C00000020A06270BD002070BD737A4E2BD1D100
:104C1000E26A6369A1691632521B8B42E262EFDAE3
:104C2000226903EB830081000133636102EB8000A2
:104C30000023C0E901335354034A1523C0E9032379
:104C4000DFE700BFE8240108F42401082DE9F04162
:104C5000C3681A78532A31D15A1CC2605A78044664
:104C6000A2B39A1CC2605A785F2A44D0A2F13003E2
:104C7000D8B2092826D800210DE0303B99421DD832
:104C8000E06802781946451C1AB1E56002785F2A8F
:104C90003BD0A2F13003D8B2092801EBC103A2F145
:104CA000410C02EB8303E8D9BCF1190F06D801EBE4
:104CB000C10302EB8303373B9942E1D90025284623
:104CC000BDE8F081A2F141001928D4D9A36803F00E
:104CD0000803002B14BF0125002500D1B9B93F4BB3
:104CE000742103F1A80001E013F81C1F914215D0B4
:104CF0008342F9D1E2E70023226A9A42DED9E269CF
:104D000052F823502846BDE8F0810133F4E7E36808
:104D10001B78433B012B98BF0D46E0E75E69002EF0
:104D200054D0D4E905208242D3F8188053DA276999
:104D300002EB820C07EB8C014FF0000EC1E901EE93
:104D400001324FF0180E626107F82CE0C1E90368E8
:104D5000A162002D37D0D3E90371E36A82420B448C
:104D6000E36236DA236902EB820003EB800501324D
:104D70000026C5E901666261182203F82020C5E912
:104D80000371E3681A78422A99D1A66A0133E36075
:104D90002046FFF7EBFE2A4603464D212046FFF74B
:104DA000CDFBE3681A78422A0546EFD0A6620028B8
:104DB00084D0D4E90832934280DAE1695A1C41F880
:104DC000230022627BE7D3E90171C6E7D4E905201D
:104DD000BFE70025D5E70021BAE700BF1435010879
:104DE0002DE9F043C26883B004461046FFF77EFD0C
:104DF000002866D113785A2B31D82F2B5CD9303B41
:104E00002A2B59D8DFE813F08C008C008C008C0022
:104E10008C008C008C008C008C008C00580058009A
:104E200058005800580058005800D6015800D900C2
:104E3000ED005800E7006001580058005800580085
:104E4000580018028C00CB00BD005800AF0095013F
:104E50006E01BE0158005800580058008C00613B9C
:104E60005FFA83FCBCF1190F26D8C44D012101FA69
:104E70000CF10D40EDB1C24903EB830301EB83015B
:104E8000D4E90535AB4280F2C583266903EB830C78
:104E900006EB8C050133C5E901006361272306F8A1
:104EA0002C30E960E36A496801320B44E260E36256
:104EB00003E0BCF1140F48D00025284603B0BDE83C
:104EC000F083002201A9204601F0B4FA054600282B
:104ED000F2D0E3681B78462B20461ED0FFF780FFF8
:104EE00028600028E8D003781F3B012B05D8019AE1
:104EF000C368C2602A6801922B60019D002DDBD03F
:104F0000D4E908329342D7DAE1695A1C284641F8BD
:104F10002350226203B0BDE8F08300F0FDFBDFE721
:104F2000204601F06BFD05460190002DC4D0D4E968
:104F300008329342C0DAE16941F82350019D5A1CBE
:104F40002846226203B0BDE8F0830132E2602046C9
:104F5000FFF70CFE2B46024628212046FFF7EEFA0B
:104F600005460190E1E70132E2602046FFF738FF95
:104F70000023024623212046FFF7E0FA0546019070
:104F8000D3E70132E2602046FFF72AFF0023024602
:104F900022212046FFF7D2FA05460190C5E70132EB
:104FA000E2602046FFF71CFF002302462421204632
:104FB000FFF7C4FA05460190B7E70132E2602046E8
:104FC000FFF70EFF0023024625212046FFF7B6FA21
:104FD00005460190A9E7204600F09EFB054601909A
:104FE000A3E7531CE3605378002B3FF465AF931C99
:104FF000E3605378463B302B3FF65EAF01A151F89A
:1050000023F000BFA5520008B94E0008B94E0008B1
:10501000B94E0008B94E0008B94E0008B94E000854
:10502000B94E0008B94E0008B94E0008B94E000844
:10503000B94E0008B94E0008B94E00086952000880
:10504000B94E0008B94E0008B94E0008B94E000824
:10505000B94E0008B94E0008B94E0008B94E000814
:10506000B94E0008B94E0008B94E0008B94E000804
:105070003D530008B94E0008115300082B55000895
:10508000FB54000899530008B94E00086953000802
:10509000CB540008B94E0008B94E0008B94E0008BC
:1050A000B94E00089B540008B94E0008835400080C
:1050B000B94E0008B94E0008535400086952000860
:1050C00023540008C95300080132E2602046FFF76C
:1050D00087FE0023024626212046FFF72FFA0546C9
:1050E000019022E72046FFF7D5FCE668019033786F
:1050F000492B05467FF419AF636B002B40F05782B4
:1051000000283FF4D9AED4E908218A42BFF6D4AED4
:10511000E16941F82200013222623278493A012ADB
:1051200005D80136E660204600F00CFE03462A460C
:105130001CE05378A3F13002092A05D95F2B03D074
:10514000413B192B00F2268200212046FFF77EFD0D
:10515000E36801901A78492A05467FF4AEAE013320
:10516000E360204600F0EEFD2A4603460421204677
:10517000FFF7E4F905460190D7E600BFFF7BEC039B
:10518000DC2D01080132E2602046FFF7EFFCE36806
:1051900001901A78492A054600F0E1812046FFF780
:1051A0001FFE2B46024621212046FFF7C7F9054680
:1051B0000190BAE6551CE56053785F2B00F0CD8175
:1051C000303B092B00F2D8812B469C460133E3602B
:1051D000197830390929F8D9D4E905108142ACEBA6
:1051E0000202BFF669AE276901EB810007EB80067A
:1051F0004FEA800E002001318242C6E90100616160
:105200007FF75AAEC6E9010007F80E00C6E903525F
:105210009CF801201D465F2A7FF44EAE0135E56003
:105220002046FFF7DDFD324603462A212046FFF7E0
:1052300085F90546019078E60132E2602046FFF7E5
:10524000CFFD054600283FF437AE2046FFF7C8FDE6
:10525000034600283FF430AE2A462B212046FFF7B4
:105260006DF90546019060E60123256B2363204616
:1052700000F030FE25630246002344212046FFF75C
:105280005DF90546019000283FF416AEE3681A78F0
:10529000002A3FF411AE5A1CE2601B78452B7FF4C4
:1052A0000BAE44E6D4E905318B4280F2B581216929
:1052B00003EB830001EB800501330026C5E901669D
:1052C00063612C2301F8203093780195303BDBB2E9
:1052D000092B94BF012333462B8202D82046FFF7C7
:1052E000A5F92046FFF77CFDE86000283FF4E4AD17
:1052F0002046FFF79BF9E268137813B1531CE36073
:105300001378A3F17303B3FA83F35B096B82D4E5DB
:10531000D4E905329342BFF6CFAD2269C04903EB11
:105320008305A8000133636102EB85050023C5E90D
:10533000013313540E23C5E90313BEE5D4E9053246
:105340009342BFF6B9AD2269B64903EB8305A800C5
:105350000133636102EB85050023C5E90133135472
:105360000423C5E90313A8E5D4E90532934280F28A
:105370006B81226903EB830102EB8105013300207D
:10538000C5E901006361272302F82130E36AA64AD8
:10539000EA600433E36290E5D4E90532934280F297
:1053A0005381226903EB830102EB81050133002065
:1053B000C5E901006361272302F82130E36A9B4AB3
:1053C000EA600933E36278E593785F2B00F014819B
:1053D000D4E905329342BFF66FAD226903EB830136
:1053E00002EB810501330020C5E90100636143231D
:1053F00002F821302046FFF719F9E860E3681A78CF
:105400005F2A7FF459AD0133E3602046FFF7E8FCE3
:105410002A4603462D212046FFF790F805460190C5
:1054200083E5D4E90532934280F20E81226903EBD1
:10543000830102EB810501330020C5E901006361AE
:10544000272302F82130E36A794AEA600733E362EE
:1054500033E5D4E90532934280F2F680226903EB0A
:10546000830102EB810501330020C5E9010063617E
:10547000272302F82130E36A6E4AEA600833E362C8
:105480001BE52046FFF7ACFC002302464C212046DA
:10549000FFF754F80546019047E5D4E905329342F9
:1054A00080F2D280226903EB830102EB8105013394
:1054B0000020C5E901006361272302F82130E36A77
:1054C0005D4AEA601133E362F7E4D4E905329342BE
:1054D00080F2BA80226903EB830102EB810501337C
:1054E0000020C5E901006361272302F82130E36A47
:1054F000524AEA600833E362DFE4D4E905329342BA
:1055000080F2A280226903EB830102EB8105013363
:105510000020C5E901006361272302F82130E36A16
:10552000474AEA600A33E362C7E4D4E905329342AA
:1055300080F28A80226903EB830102EB810501334B
:105540000020C5E901006361272302F82130E36AE6
:105550003C4AEA600933E362AFE400265EE60133C9
:10556000E360204600F0EEFB2A4603460421204675
:10557000FEF7E4FF054611E60123256B2363204671
:1055800000F0A8FC2563064600283FF495ACE568CA
:105590002A7840E6204601F031FA054601900028BD
:1055A0003FF48AAC0378182B7FF4C1AC85E4731CFC
:1055B000E3602046D4F81490D4F82080E76A00F025
:1055C000C1FBE3681B78492B06D0E660C4F8149051
:1055D000C4F82080E762A8E4002D3FF46DACD4E964
:1055E00008139942BFF668ACE26942F821500131D4
:1055F00003462A462162B9E503320123256BE260A6
:105600002363204600F066FC2563054600287FF4EE
:10561000F5AE51E4C368FFDE00231B70FFDE00BF60
:10562000142501080C25010820300108E42F010889
:105630003430010848300108703001085C3001083E
:105640000C300108F82F01080023DB68FFDE00BFE3
:1056500030B5C26883B0002301931378002B34D097
:10566000044601AD4F2B0CD009D82E2B01D0452B71
:105670000AD1019848B30369CBB103B030BD522BB6
:1056800002D15378452BF4D02046FFF7A9FB024600
:1056900000232E212046C2B1FEF750FF2860A0B1A2
:1056A000E268137800F11005002BDBD1E1E7C26856
:1056B00011782729E1D1D268117C0929DDD1E16A6D
:1056C0005268891AE162C360D7E7002003B030BD99
:1056D00070B5C3681A784A2A05461AD081B128469F
:1056E000FFF77EFB044690B12846FFF7B1FF034663
:1056F00068B1224628462921BDE87040FEF71EBF4A
:1057000028460C46FFF7A4FF03460028F1D10020ED
:1057100070BD0133C360E2E710B50446806810F441
:1057200080200BD1E26BB2F5006F06D8511CE36804
:10573000E1631978462907D0E26310BDE3681A785F
:10574000462A01D0002010BD5A1CE2605A78592A1E
:1057500004BF0233E36001212046FFF7B9FF014691
:105760002046FEF7C1FFE3681A78452A04BF0133DB
:10577000E360A36818BF00205B03DED4E26B013A4C
:10578000DAE700BFF8B5C3681F78064677BB4FF06D
:10579000000E3D4D482100228B1A03EBD37302EB20
:1057A0006303180105EB031C2C582078B84206D07F
:1057B00094BF5A1C19468A42EED10020F8BD607889
:1057C0007045F5D1D6E905329342F6DA326903EB3A
:1057D000830102EB810001330024C0E901447361BD
:1057E000322302F82130C0F80CC0F8BD5A1CC26048
:1057F00093F801E01F78BEF1000F02D1762FC8D0D8
:10580000C5E79A1CC260762F93F801E01FD1AEF174
:105810003004E3B2092BBCD8FFF7A8F9D6E905316B
:105820008B420246C9DA376903EB830107EB81003B
:1058300001330025C0E9015589007361002ABCD0FD
:105840003323C0E901557B54C0E90342F8BD632FFF
:105850009FD1BEF1760F9CD1D0E90C34B3FA83F31B
:105860005B094363FFF7BCFA736B024633B1002355
:1058700035213046FEF762FE7463F8BD34213046B0
:10588000FEF75CFEF8E700BF84300108F8B5C36896
:105890001A78A2F130010929044665D9552A6CD03D
:1058A00038D8442A0FD94C2A0AD10133C360FFF7F4
:1058B0005DF9054620B12046FEF7AAFF00283BD13E
:1058C00000252846F8BD422AFAD9816A41B10878F4
:1058D000002840F09180E26A08690244E2621A7886
:1058E000432A00F0C880442A40F084805A78303A35
:1058F000052AE5D801A050F822F000BF075A000899
:105900005F5A00084D5A0008C1580008595A00084B
:10591000535A0008A2F161011929D1D86F2A056BE9
:1059200000F0A0802046FFF72DFF2563054618B143
:105930000378322B00F0C680E3681A78422AC0D17F
:10594000A66A0133E3602046FFF710F92A460346B2
:105950004D212046FEF7F2FDE3681A78422A0546FB
:10596000EFD0A6622846F8BDFFF700F9E3681A7881
:105970000546422AE4D02846F8BD5A786C2A00F041
:10598000C180742A9CD1591CC1605A78742A37D1BD
:105990009A1CC2609A785F2A00F008816E2A8FD024
:1059A000FEF744FE0130E36800F1FD801A785F2ABB
:1059B00020D10133D4E905218A42E36080F20081DD
:1059C000266902EB820706EB870501320021C5E953
:1059D00001116261492206F82720E860D4E9082015
:1059E000824280F2EA80E16941F82250013222626B
:1059F0001A78BEE70025BCE718287FF471AF6AE784
:105A00000B460025B5E74FF0010ED4E905209F1C99
:105A10008242E76080F2C280D4F810C002EB8200BC
:105A20000CEB800501320026C5E901668000626149
:105A3000002900F0B380C5E9016608220CF80020B7
:105A400085F80CE029619A783B4692E74FF0030E07
:105A5000DBE74FF0050ED8E74FF0040ED5E74FF027
:105A6000020ED2E75A786E2A7FF45CAF023300222E
:105A7000C360026356E75A78492A7FD0A2F1310009
:105A800004283FF61DAF303A0233D6B2E360D4E9C2
:105A90000532934280F28680276903EB830207EB8D
:105AA000820501330020C5E90100920063610029ED
:105AB00078D00723C5E90100BB54E3682E73296140
:105AC0001A7856E7C268E36A9168126807330B4494
:105AD000E36213786C2B7FF42FAF5378692B7FF43C
:105AE0002BAF9378002B7FF427AF2046FFF73EF8CB
:105AF0002A46034637212046FEF720FDE368054687
:105B00001A7836E7591CC1605A786C2A7FF478AF4E
